{
  "_format": "hh-sol-artifact-1",
  "contractName": "SongPortal",
  "sourceName": "contracts/SongPortal.sol",
  "abi": [
    {
      "inputs": [],
      "stateMutability": "payable",
      "type": "constructor"
    },
    {
      "anonymous": false,
      "inputs": [
        {
          "indexed": true,
          "internalType": "address",
          "name": "from",
          "type": "address"
        },
        {
          "indexed": false,
          "internalType": "uint256",
          "name": "timestamp",
          "type": "uint256"
        },
        {
          "indexed": false,
          "internalType": "string",
          "name": "message",
          "type": "string"
        }
      ],
      "name": "NewSong",
      "type": "event"
    },
    {
      "inputs": [
        {
          "internalType": "string",
          "name": "_message",
          "type": "string"
        }
      ],
      "name": "addSong",
      "outputs": [],
      "stateMutability": "nonpayable",
      "type": "function"
    },
    {
      "inputs": [],
      "name": "getAllSongs",
      "outputs": [
        {
          "components": [
            {
              "internalType": "address",
              "name": "poster",
              "type": "address"
            },
            {
              "internalType": "string",
              "name": "message",
              "type": "string"
            },
            {
              "internalType": "uint256",
              "name": "timestamp",
              "type": "uint256"
            }
          ],
          "internalType": "struct SongPortal.Song[]",
          "name": "",
          "type": "tuple[]"
        }
      ],
      "stateMutability": "view",
      "type": "function"
    },
    {
      "inputs": [],
      "name": "getTotalSongs",
      "outputs": [
        {
          "internalType": "uint256",
          "name": "",
          "type": "uint256"
        }
      ],
      "stateMutability": "view",
      "type": "function"
    },
    {
      "inputs": [
        {
          "internalType": "address",
          "name": "",
          "type": "address"
        }
      ],
      "name": "lastSongAt",
      "outputs": [
        {
          "internalType": "uint256",
          "name": "",
          "type": "uint256"
        }
      ],
      "stateMutability": "view",
      "type": "function"
    }
  ],
  "bytecode": "0x6080604052620000336040518060600160405280602b8152602001620013fa602b91396200005b60201b620006461760201c565b60644442620000439190620001a8565b6200004f919062000245565b600181905550620002ec565b620000fb8160405160240162000072919062000168565b6040516020818303038152906040527f41304fac000000000000000000000000000000000000000000000000000000007bffffffffffffffffffffffffffffffffffffffffffffffffffffffff19166020820180517bffffffffffffffffffffffffffffffffffffffffffffffffffffffff8381831617835250505050620000fe60201b60201c565b50565b60008151905060006a636f6e736f6c652e6c6f679050602083016000808483855afa5050505050565b600062000134826200018c565b62000140818562000197565b9350620001528185602086016200020f565b6200015d81620002db565b840191505092915050565b6000602082019050818103600083015262000184818462000127565b905092915050565b600081519050919050565b600082825260208201905092915050565b6000620001b58262000205565b9150620001c28362000205565b9250827fffffffffffffffffffffffffffffffffffffffffffffffffffffffffffffffff03821115620001fa57620001f96200027d565b5b828201905092915050565b6000819050919050565b60005b838110156200022f57808201518184015260208101905062000212565b838111156200023f576000848401525b50505050565b6000620002528262000205565b91506200025f8362000205565b925082620002725762000271620002ac565b5b828206905092915050565b7f4e487b7100000000000000000000000000000000000000000000000000000000600052601160045260246000fd5b7f4e487b7100000000000000000000000000000000000000000000000000000000600052601260045260246000fd5b6000601f19601f8301169050919050565b6110fe80620002fc6000396000f3fe608060405234801561001057600080fd5b506004361061004c5760003560e01c806329ef6862146100515780636ad566341461006f5780637f590f5e1461009f5780638c9db2b4146100bb575b600080fd5b6100596100d9565b6040516100669190610c8c565b60405180910390f35b61008960048036038101906100849190610960565b61022a565b6040516100969190610d90565b60405180910390f35b6100b960048036038101906100b49190610989565b610242565b005b6100c36105fb565b6040516100d09190610d90565b60405180910390f35b60606002805480602002602001604051908101604052809291908181526020016000905b8282101561022157838290600052602060002090600302016040518060600160405290816000820160009054906101000a900473ffffffffffffffffffffffffffffffffffffffff1673ffffffffffffffffffffffffffffffffffffffff1673ffffffffffffffffffffffffffffffffffffffff16815260200160018201805461018690610f81565b80601f01602080910402602001604051908101604052809291908181526020018280546101b290610f81565b80156101ff5780601f106101d4576101008083540402835291602001916101ff565b820191906000526020600020905b8154815290600101906020018083116101e257829003601f168201915b50505050508152602001600282015481525050815260200190600101906100fd565b50505050905090565b60036020528060005260406000206000915090505481565b42601e600360003373ffffffffffffffffffffffffffffffffffffffff1673ffffffffffffffffffffffffffffffffffffffff1681526020019081526020016000205461028f9190610ead565b106102cf576040517f08c379a00000000000000000000000000000000000000000000000000000000081526004016102c690610d50565b60405180910390fd5b42600360003373ffffffffffffffffffffffffffffffffffffffff1673ffffffffffffffffffffffffffffffffffffffff1681526020019081526020016000208190555060016000808282546103259190610ead565b9250508190555061036b6040518060400160405280601481526020017f25732068617320706f73746564206120736f6e67000000000000000000000000815250336106df565b600260405180606001604052803373ffffffffffffffffffffffffffffffffffffffff16815260200183815260200142815250908060018154018082558091505060019003906000526020600020906003020160009091909190915060008201518160000160006101000a81548173ffffffffffffffffffffffffffffffffffffffff021916908373ffffffffffffffffffffffffffffffffffffffff160217905550602082015181600101908051906020019061042a929190610840565b50604082015181600201555050606460015442446104489190610ead565b6104529190610ead565b61045c9190610fb3565b600181905550600a600154116105a8576104ab6040518060400160405280600781526020017f25732077696e2100000000000000000000000000000000000000000000000000815250336106df565b6000655af3107a40009050478111156104f9576040517f08c379a00000000000000000000000000000000000000000000000000000000081526004016104f090610d30565b60405180910390fd5b60003373ffffffffffffffffffffffffffffffffffffffff168260405161051f90610c77565b60006040518083038185875af1925050503d806000811461055c576040519150601f19603f3d011682016040523d82523d6000602084013e610561565b606091505b50509050806105a5576040517f08c379a000000000000000000000000000000000000000000000000000000000815260040161059c90610d70565b60405180910390fd5b50505b3373ffffffffffffffffffffffffffffffffffffffff167f2e96c1f7928a9072fdae4127a395c0b9269f4a7dce78ac1d1ee0c22036af97d942836040516105f0929190610dab565b60405180910390a250565b600061063e6040518060400160405280601681526020017f5765206861766520256420746f74616c20736f6e67730000000000000000000081525060005461077b565b600054905090565b6106dc8160405160240161065a9190610cae565b6040516020818303038152906040527f41304fac000000000000000000000000000000000000000000000000000000007bffffffffffffffffffffffffffffffffffffffffffffffffffffffff19166020820180517bffffffffffffffffffffffffffffffffffffffffffffffffffffffff8381831617835250505050610817565b50565b61077782826040516024016106f5929190610cd0565b6040516020818303038152906040527f319af333000000000000000000000000000000000000000000000000000000007bffffffffffffffffffffffffffffffffffffffffffffffffffffffff19166020820180517bffffffffffffffffffffffffffffffffffffffffffffffffffffffff8381831617835250505050610817565b5050565b6108138282604051602401610791929190610d00565b6040516020818303038152906040527f9710a9d0000000000000000000000000000000000000000000000000000000007bffffffffffffffffffffffffffffffffffffffffffffffffffffffff19166020820180517bffffffffffffffffffffffffffffffffffffffffffffffffffffffff8381831617835250505050610817565b5050565b60008151905060006a636f6e736f6c652e6c6f679050602083016000808483855afa5050505050565b82805461084c90610f81565b90600052602060002090601f01602090048101928261086e57600085556108b5565b82601f1061088757805160ff19168380011785556108b5565b828001600101855582156108b5579182015b828111156108b4578251825591602001919060010190610899565b5b5090506108c291906108c6565b5090565b5b808211156108df5760008160009055506001016108c7565b5090565b60006108f66108f184610e0c565b610ddb565b90508281526020810184848401111561090e57600080fd5b610919848285610f3f565b509392505050565b600081359050610930816110b1565b92915050565b600082601f83011261094757600080fd5b81356109578482602086016108e3565b91505092915050565b60006020828403121561097257600080fd5b600061098084828501610921565b91505092915050565b60006020828403121561099b57600080fd5b600082013567ffffffffffffffff8111156109b557600080fd5b6109c184828501610936565b91505092915050565b60006109d68383610c09565b905092915050565b6109e781610f03565b82525050565b6109f681610f03565b82525050565b6000610a0782610e4c565b610a118185610e6f565b935083602082028501610a2385610e3c565b8060005b85811015610a5f5784840389528151610a4085826109ca565b9450610a4b83610e62565b925060208a01995050600181019050610a27565b50829750879550505050505092915050565b6000610a7c82610e57565b610a868185610e8b565b9350610a96818560208601610f4e565b610a9f816110a0565b840191505092915050565b6000610ab582610e57565b610abf8185610e9c565b9350610acf818560208601610f4e565b610ad8816110a0565b840191505092915050565b6000610af0603583610e9c565b91507f547279696e6720746f207769746864726177206d6f7265206d6f6e657920746860008301527f616e2074686520636f6e747261637420686173212100000000000000000000006020830152604082019050919050565b6000610b56600883610e9c565b91507f77616974203330730000000000000000000000000000000000000000000000006000830152602082019050919050565b6000610b96602683610e9c565b91507f4661696c656420746f207769746864726177206d6f6e65792066726f6d20636f60008301527f6e747261637400000000000000000000000000000000000000000000000000006020830152604082019050919050565b6000610bfc600083610e80565b9150600082019050919050565b6000606083016000830151610c2160008601826109de565b5060208301518482036020860152610c398282610a71565b9150506040830151610c4e6040860182610c59565b508091505092915050565b610c6281610f35565b82525050565b610c7181610f35565b82525050565b6000610c8282610bef565b9150819050919050565b60006020820190508181036000830152610ca681846109fc565b905092915050565b60006020820190508181036000830152610cc88184610aaa565b905092915050565b60006040820190508181036000830152610cea8185610aaa565b9050610cf960208301846109ed565b9392505050565b60006040820190508181036000830152610d1a8185610aaa565b9050610d296020830184610c68565b9392505050565b60006020820190508181036000830152610d4981610ae3565b9050919050565b60006020820190508181036000830152610d6981610b49565b9050919050565b60006020820190508181036000830152610d8981610b89565b9050919050565b6000602082019050610da56000830184610c68565b92915050565b6000604082019050610dc06000830185610c68565b8181036020830152610dd28184610aaa565b90509392505050565b6000604051905081810181811067ffffffffffffffff82111715610e0257610e01611071565b5b8060405250919050565b600067ffffffffffffffff821115610e2757610e26611071565b5b601f19601f8301169050602081019050919050565b6000819050602082019050919050565b600081519050919050565b600081519050919050565b6000602082019050919050565b600082825260208201905092915050565b600081905092915050565b600082825260208201905092915050565b600082825260208201905092915050565b6000610eb882610f35565b9150610ec383610f35565b9250827fffffffffffffffffffffffffffffffffffffffffffffffffffffffffffffffff03821115610ef857610ef7610fe4565b5b828201905092915050565b6000610f0e82610f15565b9050919050565b600073ffffffffffffffffffffffffffffffffffffffff82169050919050565b6000819050919050565b82818337600083830152505050565b60005b83811015610f6c578082015181840152602081019050610f51565b83811115610f7b576000848401525b50505050565b60006002820490506001821680610f9957607f821691505b60208210811415610fad57610fac611042565b5b50919050565b6000610fbe82610f35565b9150610fc983610f35565b925082610fd957610fd8611013565b5b828206905092915050565b7f4e487b7100000000000000000000000000000000000000000000000000000000600052601160045260246000fd5b7f4e487b7100000000000000000000000000000000000000000000000000000000600052601260045260246000fd5b7f4e487b7100000000000000000000000000000000000000000000000000000000600052602260045260246000fd5b7f4e487b7100000000000000000000000000000000000000000000000000000000600052604160045260246000fd5b6000601f19601f8301169050919050565b6110ba81610f03565b81146110c557600080fd5b5056fea2646970667358221220fe6558290d2a1286f287b6b90a6e12962059968ffdbee198998fb224dcf34d9f64736f6c6343000800003357656c6f636f6d6520746f2074686520736f6e6720706f7274616c2c20506f737420796f757220736f6e67",
  "linkReferences": {},
  "deployedLinkReferences": {}
}